{
  "contractName": "PlagiarismChecker",
  "abi": [
    {
      "anonymous": false,
      "inputs": [
        {
          "indexed": true,
          "internalType": "address",
          "name": "author",
          "type": "address"
        },
        {
          "indexed": false,
          "internalType": "uint256",
          "name": "similarity",
          "type": "uint256"
        },
        {
          "indexed": false,
          "internalType": "uint256",
          "name": "checksRemaining",
          "type": "uint256"
        },
        {
          "indexed": false,
          "internalType": "bool",
          "name": "isBanned",
          "type": "bool"
        }
      ],
      "name": "PlagiarismChecked",
      "type": "event"
    },
    {
      "inputs": [
        {
          "internalType": "address",
          "name": "",
          "type": "address"
        }
      ],
      "name": "authorStates",
      "outputs": [
        {
          "internalType": "uint256",
          "name": "checksRemaining",
          "type": "uint256"
        },
        {
          "internalType": "uint256",
          "name": "highSimilarityCount",
          "type": "uint256"
        },
        {
          "internalType": "bool",
          "name": "isBanned",
          "type": "bool"
        }
      ],
      "stateMutability": "view",
      "type": "function",
      "constant": true
    },
    {
      "inputs": [
        {
          "internalType": "address",
          "name": "author",
          "type": "address"
        },
        {
          "internalType": "uint256",
          "name": "similarity",
          "type": "uint256"
        }
      ],
      "name": "recordCheck",
      "outputs": [
        {
          "internalType": "bool",
          "name": "allowed",
          "type": "bool"
        }
      ],
      "stateMutability": "nonpayable",
      "type": "function"
    },
    {
      "inputs": [
        {
          "internalType": "address",
          "name": "author",
          "type": "address"
        }
      ],
      "name": "getAuthorState",
      "outputs": [
        {
          "internalType": "uint256",
          "name": "checksRemaining",
          "type": "uint256"
        },
        {
          "internalType": "uint256",
          "name": "highSimilarityCount",
          "type": "uint256"
        },
        {
          "internalType": "bool",
          "name": "isBanned",
          "type": "bool"
        }
      ],
      "stateMutability": "view",
      "type": "function",
      "constant": true
    }
  ],
  "bytecode": "0x608060405234801561001057600080fd5b506103e6806100206000396000f3fe608060405234801561001057600080fd5b50600436106100415760003560e01c80632b93b3bb146100465780637aa611fc1461009a578063fb9a6ae0146100d6575b600080fd5b610078610054366004610328565b60006020819052908152604090208054600182015460029092015490919060ff1683565b6040805193845260208401929092521515908201526060015b60405180910390f35b6100786100a8366004610328565b6001600160a01b0316600090815260208190526040902080546001820154600290920154909260ff90911690565b6100e96100e436600461034a565b6100f9565b6040519015158152602001610091565b600061010483610296565b6001600160a01b0383166000908152602081905260409020600281015460ff16156101825760405162461bcd60e51b8152602060048201526024808201527f417574686f722069732062616e6e65642066726f6d206675727468657220636860448201526365636b7360e01b60648201526084015b60405180910390fd5b80546101c65760405162461bcd60e51b81526020600482015260136024820152724e6f20636865636b732072656d61696e696e6760681b6044820152606401610179565b601e8311156102055760018160010160008282546101e4919061038a565b909155505060018101546003116102055760028101805460ff191660011790555b600181600001600082825461021a919061039d565b9091555050600281015460ff161580156102345750805415155b8154600283015460408051878152602081019390935260ff909116151582820152519193506001600160a01b038616917f6985cee697a51fa823bb2f846a7772785bd75038d856ae37bac9df5d22ed89b39181900360600190a2505b92915050565b6001600160a01b0381166000908152602081905260408120549003610309576040805160608101825260038152600060208083018281528385018381526001600160a01b03871684529183905293909120915182559151600182015590516002909101805460ff19169115159190911790555b50565b80356001600160a01b038116811461032357600080fd5b919050565b60006020828403121561033a57600080fd5b6103438261030c565b9392505050565b6000806040838503121561035d57600080fd5b6103668361030c565b946020939093013593505050565b634e487b7160e01b600052601160045260246000fd5b8082018082111561029057610290610374565b818103818111156102905761029061037456fea26469706673582212203a6ac8aec0031e1c7cd054c8c4794d47ef0769204a7c4490e49e9566a01eb39164736f6c63430008130033",
  "immutableReferences": {},
  "source": "// SPDX-License-Identifier: MIT\npragma solidity ^0.8.0;\n\ncontract PlagiarismChecker {\n    struct CheckerState {\n        uint256 checksRemaining;\n        uint256 highSimilarityCount;\n        bool isBanned;\n    }\n    \n    // Mapping from author address to their check state\n    mapping(address => CheckerState) public authorStates;\n    \n    // Event for when checks are performed\n    event PlagiarismChecked(\n        address indexed author,\n        uint256 similarity,\n        uint256 checksRemaining,\n        bool isBanned\n    );\n    \n    // Initialize with 3 checks for new authors\n    function _initializeAuthor(address author) private {\n        if (authorStates[author].checksRemaining == 0) {\n            authorStates[author] = CheckerState({\n                checksRemaining: 3,\n                highSimilarityCount: 0,\n                isBanned: false\n            });\n        }\n    }\n    \n    // Record a plagiarism check\n    function recordCheck(address author, uint256 similarity) external returns (bool allowed) {\n        _initializeAuthor(author);\n        CheckerState storage state = authorStates[author];\n        \n        require(!state.isBanned, \"Author is banned from further checks\");\n        require(state.checksRemaining > 0, \"No checks remaining\");\n        \n        if (similarity > 30) {\n            state.highSimilarityCount += 1;\n            if (state.highSimilarityCount >= 3) {\n                state.isBanned = true;\n            }\n        }\n        \n        state.checksRemaining -= 1;\n        allowed = !state.isBanned && state.checksRemaining > 0;\n        \n        emit PlagiarismChecked(\n            author,\n            similarity,\n            state.checksRemaining,\n            state.isBanned\n        );\n        \n        return allowed;\n    }\n    \n    // Get author's check state\n    function getAuthorState(address author) external view returns (\n        uint256 checksRemaining,\n        uint256 highSimilarityCount,\n        bool isBanned\n    ) {\n        CheckerState storage state = authorStates[author];\n        return (\n            state.checksRemaining,\n            state.highSimilarityCount,\n            state.isBanned\n        );\n    }\n}",
  "sourcePath": "/Users/disha/Desktop/SEM-6/Blockchain/MiniProject/plagiarism-proof-system/contracts/PlagiarismChecker.sol",
  "compiler": {
    "name": "solc",
    "version": "0.8.19+commit.7dd6d404.Emscripten.clang"
  },
  "schemaVersion": "3.4.16",
  "updatedAt": "2025-04-23T04:59:22.902Z",
  "networkType": "ethereum",
  "devdoc": {
    "kind": "dev",
    "methods": {},
    "version": 1
  },
  "userdoc": {
    "kind": "user",
    "methods": {},
    "version": 1
  }
}