{
  "contractName": "AcademicPaperRegistry",
  "abi": [
    {
      "anonymous": false,
      "inputs": [
        {
          "indexed": false,
          "internalType": "string",
          "name": "bucketHash",
          "type": "string"
        },
        {
          "indexed": false,
          "internalType": "string",
          "name": "title",
          "type": "string"
        },
        {
          "indexed": false,
          "internalType": "address",
          "name": "author",
          "type": "address"
        },
        {
          "indexed": false,
          "internalType": "uint256",
          "name": "timestamp",
          "type": "uint256"
        }
      ],
      "name": "PaperRegistered",
      "type": "event"
    },
    {
      "anonymous": false,
      "inputs": [
        {
          "indexed": false,
          "internalType": "string",
          "name": "bucketHash",
          "type": "string"
        },
        {
          "indexed": false,
          "internalType": "string",
          "name": "contentHash",
          "type": "string"
        },
        {
          "indexed": false,
          "internalType": "uint256",
          "name": "versionNumber",
          "type": "uint256"
        },
        {
          "indexed": false,
          "internalType": "uint256",
          "name": "timestamp",
          "type": "uint256"
        }
      ],
      "name": "VersionAdded",
      "type": "event"
    },
    {
      "inputs": [
        {
          "internalType": "uint256",
          "name": "",
          "type": "uint256"
        }
      ],
      "name": "allBucketHashes",
      "outputs": [
        {
          "internalType": "string",
          "name": "",
          "type": "string"
        }
      ],
      "stateMutability": "view",
      "type": "function",
      "constant": true
    },
    {
      "inputs": [
        {
          "internalType": "string",
          "name": "",
          "type": "string"
        },
        {
          "internalType": "uint256",
          "name": "",
          "type": "uint256"
        }
      ],
      "name": "paperVersions",
      "outputs": [
        {
          "internalType": "string",
          "name": "contentHash",
          "type": "string"
        },
        {
          "internalType": "uint256",
          "name": "timestamp",
          "type": "uint256"
        },
        {
          "internalType": "string",
          "name": "description",
          "type": "string"
        }
      ],
      "stateMutability": "view",
      "type": "function",
      "constant": true
    },
    {
      "inputs": [
        {
          "internalType": "string",
          "name": "",
          "type": "string"
        }
      ],
      "name": "papers",
      "outputs": [
        {
          "internalType": "string",
          "name": "title",
          "type": "string"
        },
        {
          "internalType": "string",
          "name": "contentHash",
          "type": "string"
        },
        {
          "internalType": "string",
          "name": "bucketHash",
          "type": "string"
        },
        {
          "internalType": "address",
          "name": "author",
          "type": "address"
        },
        {
          "internalType": "uint256",
          "name": "timestamp",
          "type": "uint256"
        },
        {
          "internalType": "uint256",
          "name": "versionCount",
          "type": "uint256"
        },
        {
          "internalType": "bool",
          "name": "exists",
          "type": "bool"
        }
      ],
      "stateMutability": "view",
      "type": "function",
      "constant": true
    },
    {
      "inputs": [
        {
          "internalType": "string",
          "name": "",
          "type": "string"
        }
      ],
      "name": "titleToBucketHash",
      "outputs": [
        {
          "internalType": "string",
          "name": "",
          "type": "string"
        }
      ],
      "stateMutability": "view",
      "type": "function",
      "constant": true
    },
    {
      "inputs": [
        {
          "internalType": "address",
          "name": "",
          "type": "address"
        },
        {
          "internalType": "uint256",
          "name": "",
          "type": "uint256"
        }
      ],
      "name": "userPapers",
      "outputs": [
        {
          "internalType": "string",
          "name": "",
          "type": "string"
        }
      ],
      "stateMutability": "view",
      "type": "function",
      "constant": true
    },
    {
      "inputs": [
        {
          "internalType": "string",
          "name": "_title",
          "type": "string"
        },
        {
          "internalType": "string",
          "name": "_contentHash",
          "type": "string"
        },
        {
          "internalType": "string",
          "name": "_bucketHash",
          "type": "string"
        }
      ],
      "name": "registerPaper",
      "outputs": [],
      "stateMutability": "nonpayable",
      "type": "function"
    },
    {
      "inputs": [
        {
          "internalType": "string",
          "name": "_bucketHash",
          "type": "string"
        },
        {
          "internalType": "string",
          "name": "_contentHash",
          "type": "string"
        },
        {
          "internalType": "string",
          "name": "_description",
          "type": "string"
        }
      ],
      "name": "addVersion",
      "outputs": [],
      "stateMutability": "nonpayable",
      "type": "function"
    },
    {
      "inputs": [
        {
          "internalType": "string",
          "name": "_title",
          "type": "string"
        }
      ],
      "name": "checkTitleExists",
      "outputs": [
        {
          "internalType": "bool",
          "name": "",
          "type": "bool"
        },
        {
          "internalType": "string",
          "name": "",
          "type": "string"
        },
        {
          "internalType": "address",
          "name": "",
          "type": "address"
        }
      ],
      "stateMutability": "view",
      "type": "function",
      "constant": true
    },
    {
      "inputs": [
        {
          "internalType": "string",
          "name": "_bucketHash",
          "type": "string"
        }
      ],
      "name": "getPaper",
      "outputs": [
        {
          "internalType": "string",
          "name": "title",
          "type": "string"
        },
        {
          "internalType": "string",
          "name": "contentHash",
          "type": "string"
        },
        {
          "internalType": "address",
          "name": "author",
          "type": "address"
        },
        {
          "internalType": "uint256",
          "name": "timestamp",
          "type": "uint256"
        },
        {
          "internalType": "uint256",
          "name": "versionCount",
          "type": "uint256"
        }
      ],
      "stateMutability": "view",
      "type": "function",
      "constant": true
    },
    {
      "inputs": [
        {
          "internalType": "string",
          "name": "_bucketHash",
          "type": "string"
        },
        {
          "internalType": "uint256",
          "name": "_versionIndex",
          "type": "uint256"
        }
      ],
      "name": "getVersion",
      "outputs": [
        {
          "internalType": "string",
          "name": "contentHash",
          "type": "string"
        },
        {
          "internalType": "uint256",
          "name": "timestamp",
          "type": "uint256"
        },
        {
          "internalType": "string",
          "name": "description",
          "type": "string"
        }
      ],
      "stateMutability": "view",
      "type": "function",
      "constant": true
    },
    {
      "inputs": [
        {
          "internalType": "address",
          "name": "_user",
          "type": "address"
        }
      ],
      "name": "getUserPapers",
      "outputs": [
        {
          "internalType": "string[]",
          "name": "",
          "type": "string[]"
        }
      ],
      "stateMutability": "view",
      "type": "function",
      "constant": true
    },
    {
      "inputs": [],
      "name": "getPaperCount",
      "outputs": [
        {
          "internalType": "uint256",
          "name": "",
          "type": "uint256"
        }
      ],
      "stateMutability": "view",
      "type": "function",
      "constant": true
    }
  ],
  "bytecode": "0x608060405234801561001057600080fd5b506117ad806100206000396000f3fe608060405234801561001057600080fd5b50600436106100b45760003560e01c80637221b9e0116100715780637221b9e014610170578063762d8bd81461018357806393aa92e714610196578063af049804146101a9578063df079473146101cb578063f8b7695b146101ef57600080fd5b80631df2cf25146100b957806324619433146100ce5780633d7e97f2146100f9578063550c1a261461010a5780635d0d0b281461012a57806369071c701461014a575b600080fd5b6100cc6100c73660046111bd565b610202565b005b6100e16100dc366004611245565b6104e0565b6040516100f0939291906112da565b60405180910390f35b6003546040519081526020016100f0565b61011d61011836600461132b565b610705565b6040516100f0919061134d565b61013d6101383660046113af565b6107f4565b6040516100f091906113d9565b61015d6101583660046113ec565b6108ad565b6040516100f09796959493929190611429565b6100e161017e366004611245565b610a98565b6100cc6101913660046111bd565b610bfe565b61013d6101a4366004611494565b610dfa565b6101bc6101b73660046113ec565b610e25565b6040516100f0939291906114ad565b6101de6101d93660046113ec565b610f3b565b6040516100f09594939291906114e0565b61013d6101fd3660046113ec565b6110f6565b600283604051610212919061152c565b9081526020016040518091039020805461022b90611548565b15905061028b5760405162461bcd60e51b8152602060048201526024808201527f506170657220776974682074686973207469746c6520616c72656164792065786044820152636973747360e01b60648201526084015b60405180910390fd5b6040805160e08101825284815260208101849052808201839052336060820152426080820152600160a0820181905260c082015290516000906102cf90849061152c565b908152604051908190036020019020815181906102ec90826115d1565b506020820151600182019061030190826115d1565b506040820151600282019061031690826115d1565b5060608201516003820180546001600160a01b0319166001600160a01b039092169190911790556080820151600482015560a0820151600582015560c0909101516006909101805460ff191691151591909117905560405160019061037c90839061152c565b908152604080519182900360209081018320606084018352858452428483015282518084018452600f81526e24b734ba34b0b6103b32b939b4b7b760891b818401529284019290925281546001810183556000928352912082516003909202019081906103e990826115d1565b50602082015160018201556040820151600282019061040890826115d1565b5050508060028460405161041c919061152c565b9081526020016040518091039020908161043691906115d1565b50600380546001810182556000919091527fc2575a0e9e593c00f959f8c92f12db2869c3395a3b0502d05e2516446f71f85b0161047382826115d1565b503360009081526004602090815260408220805460018101825590835291200161049d82826115d1565b507fb3a92550774a6eb76a8769fda75265b7197fc0aca311783459825c80134c95e2818433426040516104d39493929190611691565b60405180910390a1505050565b6060600060606000856040516104f6919061152c565b9081526040519081900360200190206006015460ff166105285760405162461bcd60e51b8152600401610282906116d3565b600085604051610538919061152c565b90815260200160405180910390206005015484106105915760405162461bcd60e51b815260206004820152601660248201527515995c9cda5bdb88191bd95cc81b9bdd08195e1a5cdd60521b6044820152606401610282565b60006001866040516105a3919061152c565b908152602001604051809103902085815481106105c2576105c2611701565b90600052602060002090600302019050806000018160010154826002018280546105eb90611548565b80601f016020809104026020016040519081016040528092919081815260200182805461061790611548565b80156106645780601f1061063957610100808354040283529160200191610664565b820191906000526020600020905b81548152906001019060200180831161064757829003601f168201915b5050505050925080805461067790611548565b80601f01602080910402602001604051908101604052809291908181526020018280546106a390611548565b80156106f05780601f106106c5576101008083540402835291602001916106f0565b820191906000526020600020905b8154815290600101906020018083116106d357829003601f168201915b50505050509050935093509350509250925092565b6001600160a01b0381166000908152600460209081526040808320805482518185028101850190935280835260609492939192909184015b828210156107e957838290600052602060002001805461075c90611548565b80601f016020809104026020016040519081016040528092919081815260200182805461078890611548565b80156107d55780601f106107aa576101008083540402835291602001916107d5565b820191906000526020600020905b8154815290600101906020018083116107b857829003601f168201915b50505050508152602001906001019061073d565b505050509050919050565b6004602052816000526040600020818154811061081057600080fd5b9060005260206000200160009150915050805461082c90611548565b80601f016020809104026020016040519081016040528092919081815260200182805461085890611548565b80156108a55780601f1061087a576101008083540402835291602001916108a5565b820191906000526020600020905b81548152906001019060200180831161088857829003601f168201915b505050505081565b80516020818301810180516000825292820191909301209152805481906108d390611548565b80601f01602080910402602001604051908101604052809291908181526020018280546108ff90611548565b801561094c5780601f106109215761010080835404028352916020019161094c565b820191906000526020600020905b81548152906001019060200180831161092f57829003601f168201915b50505050509080600101805461096190611548565b80601f016020809104026020016040519081016040528092919081815260200182805461098d90611548565b80156109da5780601f106109af576101008083540402835291602001916109da565b820191906000526020600020905b8154815290600101906020018083116109bd57829003601f168201915b5050505050908060020180546109ef90611548565b80601f0160208091040260200160405190810160405280929190818152602001828054610a1b90611548565b8015610a685780601f10610a3d57610100808354040283529160200191610a68565b820191906000526020600020905b815481529060010190602001808311610a4b57829003601f168201915b5050505060038301546004840154600585015460069095015493946001600160a01b039092169390925060ff1687565b81516020818401810180516001825292820191850191909120919052805482908110610ac357600080fd5b906000526020600020906003020160009150915050806000018054610ae790611548565b80601f0160208091040260200160405190810160405280929190818152602001828054610b1390611548565b8015610b605780601f10610b3557610100808354040283529160200191610b60565b820191906000526020600020905b815481529060010190602001808311610b4357829003601f168201915b505050505090806001015490806002018054610b7b90611548565b80601f0160208091040260200160405190810160405280929190818152602001828054610ba790611548565b8015610bf45780601f10610bc957610100808354040283529160200191610bf4565b820191906000526020600020905b815481529060010190602001808311610bd757829003601f168201915b5050505050905083565b600083604051610c0e919061152c565b9081526040519081900360200190206006015460ff16610c405760405162461bcd60e51b8152600401610282906116d3565b336001600160a01b0316600084604051610c5a919061152c565b908152604051908190036020019020600301546001600160a01b031614610cc35760405162461bcd60e51b815260206004820181905260248201527f4f6e6c792074686520617574686f722063616e206164642076657273696f6e736044820152606401610282565b600183604051610cd3919061152c565b90815260408051918290036020908101832060608401835285845242848301529183018490528154600181018355600092835291208251600390920201908190610d1d90826115d1565b506020820151600182015560408201516002820190610d3c90826115d1565b5050506001600084604051610d51919061152c565b90815260200160405180910390206005016000828254610d719190611717565b9250508190555081600084604051610d89919061152c565b90815260200160405180910390206001019081610da691906115d1565b507f809733ae1220f7032288ee0ad1846c855a21c243208052b847b01b90dc7ad05b8383600086604051610dda919061152c565b908152604051908190036020018120600501546104d3939291429061173e565b60038181548110610e0a57600080fd5b90600052602060002001600091509050805461082c90611548565b60006060600080600285604051610e3c919061152c565b90815260200160405180910390208054610e5590611548565b80601f0160208091040260200160405190810160405280929190818152602001828054610e8190611548565b8015610ece5780601f10610ea357610100808354040283529160200191610ece565b820191906000526020600020905b815481529060010190602001808311610eb157829003601f168201915b50505050509050600081511115610f1c57600181600083604051610ef2919061152c565b9081526040519081900360200190206003015491955093506001600160a01b03169150610f349050565b50506040805160208101909152600080825292509050815b9193909250565b60608060008060008086604051610f52919061152c565b9081526040519081900360200190206006015460ff16610f845760405162461bcd60e51b8152600401610282906116d3565b60008087604051610f95919061152c565b9081526040519081900360200190206003810154600482015460058301548354939450849360018501936001600160a01b03169291908590610fd690611548565b80601f016020809104026020016040519081016040528092919081815260200182805461100290611548565b801561104f5780601f106110245761010080835404028352916020019161104f565b820191906000526020600020905b81548152906001019060200180831161103257829003601f168201915b5050505050945083805461106290611548565b80601f016020809104026020016040519081016040528092919081815260200182805461108e90611548565b80156110db5780601f106110b0576101008083540402835291602001916110db565b820191906000526020600020905b8154815290600101906020018083116110be57829003601f168201915b50505050509350955095509550955095505091939590929450565b80516020818301810180516002825292820191909301209152805461082c90611548565b634e487b7160e01b600052604160045260246000fd5b600082601f83011261114157600080fd5b813567ffffffffffffffff8082111561115c5761115c61111a565b604051601f8301601f19908116603f011681019082821181831017156111845761118461111a565b8160405283815286602085880101111561119d57600080fd5b836020870160208301376000602085830101528094505050505092915050565b6000806000606084860312156111d257600080fd5b833567ffffffffffffffff808211156111ea57600080fd5b6111f687838801611130565b9450602086013591508082111561120c57600080fd5b61121887838801611130565b9350604086013591508082111561122e57600080fd5b5061123b86828701611130565b9150509250925092565b6000806040838503121561125857600080fd5b823567ffffffffffffffff81111561126f57600080fd5b61127b85828601611130565b95602094909401359450505050565b60005b838110156112a557818101518382015260200161128d565b50506000910152565b600081518084526112c681602086016020860161128a565b601f01601f19169290920160200192915050565b6060815260006112ed60608301866112ae565b846020840152828103604084015261130581856112ae565b9695505050505050565b80356001600160a01b038116811461132657600080fd5b919050565b60006020828403121561133d57600080fd5b6113468261130f565b9392505050565b6000602080830181845280855180835260408601915060408160051b870101925083870160005b828110156113a257603f198886030184526113908583516112ae565b94509285019290850190600101611374565b5092979650505050505050565b600080604083850312156113c257600080fd5b6113cb8361130f565b946020939093013593505050565b60208152600061134660208301846112ae565b6000602082840312156113fe57600080fd5b813567ffffffffffffffff81111561141557600080fd5b61142184828501611130565b949350505050565b60e08152600061143c60e083018a6112ae565b828103602084015261144e818a6112ae565b9050828103604084015261146281896112ae565b6001600160a01b039790971660608401525050608081019390935260a0830191909152151560c0909101529392505050565b6000602082840312156114a657600080fd5b5035919050565b83151581526060602082015260006114c860608301856112ae565b905060018060a01b0383166040830152949350505050565b60a0815260006114f360a08301886112ae565b828103602084015261150581886112ae565b6001600160a01b039690961660408401525050606081019290925260809091015292915050565b6000825161153e81846020870161128a565b9190910192915050565b600181811c9082168061155c57607f821691505b60208210810361157c57634e487b7160e01b600052602260045260246000fd5b50919050565b601f8211156115cc57600081815260208120601f850160051c810160208610156115a95750805b601f850160051c820191505b818110156115c8578281556001016115b5565b5050505b505050565b815167ffffffffffffffff8111156115eb576115eb61111a565b6115ff816115f98454611548565b84611582565b602080601f831160018114611634576000841561161c5750858301515b600019600386901b1c1916600185901b1785556115c8565b600085815260208120601f198616915b8281101561166357888601518255948401946001909101908401611644565b50858210156116815787850151600019600388901b60f8161c191681555b5050505050600190811b01905550565b6080815260006116a460808301876112ae565b82810360208401526116b681876112ae565b6001600160a01b0395909516604084015250506060015292915050565b60208082526014908201527314185c195c88191bd95cc81b9bdd08195e1a5cdd60621b604082015260600190565b634e487b7160e01b600052603260045260246000fd5b8082018082111561173857634e487b7160e01b600052601160045260246000fd5b92915050565b60808152600061175160808301876112ae565b828103602084015261176381876112ae565b60408401959095525050606001529291505056fea26469706673582212205bb71f2618a842332c09b280227f3f2e2a6d67e882057550c9a4bdc5fd05d93464736f6c63430008130033",
  "immutableReferences": {},
  "source": "// SPDX-License-Identifier: MIT\npragma solidity ^0.8.0;\n\ncontract AcademicPaperRegistry {\n    struct Paper {\n        string title;\n        string contentHash;  // IPFS hash or other content hash\n        string bucketHash;   // Hash representing the \"bucket\" for all versions of this paper\n        address author;\n        uint256 timestamp;\n        uint256 versionCount;\n        bool exists;\n    }\n    \n    struct PaperVersion {\n        string contentHash;\n        uint256 timestamp;\n        string description;\n    }\n\n    // Mapping from bucket hash to Paper struct\n    mapping(string => Paper) public papers;\n    \n    // Mapping from bucket hash to array of paper versions\n    mapping(string => PaperVersion[]) public paperVersions;\n    \n    // Mapping from title to bucket hash\n    mapping(string => string) public titleToBucketHash;\n    \n    // Array of all bucket hashes\n    string[] public allBucketHashes;\n    \n    // Mapping from user address to their bucket hashes\n    mapping(address => string[]) public userPapers;\n\n    event PaperRegistered(string bucketHash, string title, address author, uint256 timestamp);\n    event VersionAdded(string bucketHash, string contentHash, uint256 versionNumber, uint256 timestamp);\n\n    // Register a new paper\n    function registerPaper(string memory _title, string memory _contentHash, string memory _bucketHash) public {\n        // Check if title already exists\n        require(bytes(titleToBucketHash[_title]).length == 0, \"Paper with this title already exists\");\n        \n        // Create new paper\n        papers[_bucketHash] = Paper({\n            title: _title,\n            contentHash: _contentHash,\n            bucketHash: _bucketHash,\n            author: msg.sender,\n            timestamp: block.timestamp,\n            versionCount: 1,\n            exists: true\n        });\n        \n        // Add first version\n        paperVersions[_bucketHash].push(PaperVersion({\n            contentHash: _contentHash,\n            timestamp: block.timestamp,\n            description: \"Initial version\"\n        }));\n        \n        // Update mappings\n        titleToBucketHash[_title] = _bucketHash;\n        allBucketHashes.push(_bucketHash);\n        userPapers[msg.sender].push(_bucketHash);\n        \n        emit PaperRegistered(_bucketHash, _title, msg.sender, block.timestamp);\n    }\n    \n    // Add new version to existing paper\n    function addVersion(string memory _bucketHash, string memory _contentHash, string memory _description) public {\n        require(papers[_bucketHash].exists, \"Paper does not exist\");\n        require(papers[_bucketHash].author == msg.sender, \"Only the author can add versions\");\n        \n        paperVersions[_bucketHash].push(PaperVersion({\n            contentHash: _contentHash,\n            timestamp: block.timestamp,\n            description: _description\n        }));\n        \n        papers[_bucketHash].versionCount += 1;\n        papers[_bucketHash].contentHash = _contentHash;  // Update to latest content hash\n        \n        emit VersionAdded(_bucketHash, _contentHash, papers[_bucketHash].versionCount, block.timestamp);\n    }\n    \n    // Check if title exists\n    function checkTitleExists(string memory _title) public view returns (bool, string memory, address) {\n        string memory bucketHash = titleToBucketHash[_title];\n        if (bytes(bucketHash).length > 0) {\n            return (true, bucketHash, papers[bucketHash].author);\n        }\n        return (false, \"\", address(0));\n    }\n    \n    // Get paper details\n    function getPaper(string memory _bucketHash) public view returns (\n        string memory title,\n        string memory contentHash,\n        address author,\n        uint256 timestamp,\n        uint256 versionCount\n    ) {\n        require(papers[_bucketHash].exists, \"Paper does not exist\");\n        Paper storage paper = papers[_bucketHash];\n        return (\n            paper.title,\n            paper.contentHash,\n            paper.author,\n            paper.timestamp,\n            paper.versionCount\n        );\n    }\n    \n    // Get version details\n    function getVersion(string memory _bucketHash, uint256 _versionIndex) public view returns (\n        string memory contentHash,\n        uint256 timestamp,\n        string memory description\n    ) {\n        require(papers[_bucketHash].exists, \"Paper does not exist\");\n        require(_versionIndex < papers[_bucketHash].versionCount, \"Version does not exist\");\n        \n        PaperVersion storage version = paperVersions[_bucketHash][_versionIndex];\n        return (\n            version.contentHash,\n            version.timestamp,\n            version.description\n        );\n    }\n    \n    // Get all papers by a user\n    function getUserPapers(address _user) public view returns (string[] memory) {\n        return userPapers[_user];\n    }\n    \n    // Get total paper count\n    function getPaperCount() public view returns (uint256) {\n        return allBucketHashes.length;\n    }\n}",
  "sourcePath": "/Users/disha/Desktop/SEM-6/Blockchain/MiniProject/plagiarism-proof-system/contracts/AcademicPaperRegistry.sol",
  "compiler": {
    "name": "solc",
    "version": "0.8.19+commit.7dd6d404.Emscripten.clang"
  },
  "schemaVersion": "3.4.16",
  "updatedAt": "2025-04-23T04:59:22.829Z",
  "networkType": "ethereum",
  "devdoc": {
    "kind": "dev",
    "methods": {},
    "version": 1
  },
  "userdoc": {
    "kind": "user",
    "methods": {},
    "version": 1
  }
}